{
  "contractName": "Squares",
  "abi": [
    {
      "constant": true,
      "inputs": [],
      "name": "GRID_SIZE_Y",
      "outputs": [
        {
          "name": "",
          "type": "uint256"
        }
      ],
      "payable": false,
      "stateMutability": "view",
      "type": "function"
    },
    {
      "constant": true,
      "inputs": [],
      "name": "owner",
      "outputs": [
        {
          "name": "",
          "type": "address"
        }
      ],
      "payable": false,
      "stateMutability": "view",
      "type": "function"
    },
    {
      "constant": true,
      "inputs": [],
      "name": "DEFAULT_COLOR",
      "outputs": [
        {
          "name": "",
          "type": "uint8"
        }
      ],
      "payable": false,
      "stateMutability": "view",
      "type": "function"
    },
    {
      "constant": true,
      "inputs": [],
      "name": "timeLimit",
      "outputs": [
        {
          "name": "",
          "type": "uint256"
        }
      ],
      "payable": false,
      "stateMutability": "view",
      "type": "function"
    },
    {
      "constant": true,
      "inputs": [],
      "name": "GRID_SIZE_X",
      "outputs": [
        {
          "name": "",
          "type": "uint256"
        }
      ],
      "payable": false,
      "stateMutability": "view",
      "type": "function"
    },
    {
      "inputs": [],
      "payable": false,
      "stateMutability": "nonpayable",
      "type": "constructor"
    },
    {
      "anonymous": false,
      "inputs": [
        {
          "indexed": false,
          "name": "x",
          "type": "uint256"
        },
        {
          "indexed": false,
          "name": "y",
          "type": "uint256"
        },
        {
          "indexed": false,
          "name": "emoji",
          "type": "uint32[8]"
        },
        {
          "indexed": false,
          "name": "r",
          "type": "uint8"
        },
        {
          "indexed": false,
          "name": "g",
          "type": "uint8"
        },
        {
          "indexed": false,
          "name": "b",
          "type": "uint8"
        },
        {
          "indexed": false,
          "name": "newOwner",
          "type": "address"
        },
        {
          "indexed": false,
          "name": "blockNumber",
          "type": "uint256"
        },
        {
          "indexed": false,
          "name": "pricePaid",
          "type": "uint256"
        },
        {
          "indexed": false,
          "name": "rentalNumber",
          "type": "uint256"
        }
      ],
      "name": "NewSquareRental",
      "type": "event"
    },
    {
      "constant": true,
      "inputs": [],
      "name": "getBalance",
      "outputs": [
        {
          "name": "balance",
          "type": "uint256"
        }
      ],
      "payable": false,
      "stateMutability": "view",
      "type": "function"
    },
    {
      "constant": true,
      "inputs": [
        {
          "name": "x",
          "type": "uint256"
        },
        {
          "name": "y",
          "type": "uint256"
        }
      ],
      "name": "getSquareInfo",
      "outputs": [
        {
          "name": "emoji",
          "type": "uint32[8]"
        },
        {
          "name": "r",
          "type": "uint8"
        },
        {
          "name": "g",
          "type": "uint8"
        },
        {
          "name": "b",
          "type": "uint8"
        },
        {
          "name": "currentOwner",
          "type": "address"
        },
        {
          "name": "placedAtBlock",
          "type": "uint256"
        },
        {
          "name": "lastPricePaid",
          "type": "uint256"
        },
        {
          "name": "timesRented",
          "type": "uint256"
        }
      ],
      "payable": false,
      "stateMutability": "view",
      "type": "function"
    },
    {
      "constant": false,
      "inputs": [
        {
          "name": "x",
          "type": "uint256"
        }
      ],
      "name": "setGridSizeX",
      "outputs": [],
      "payable": false,
      "stateMutability": "nonpayable",
      "type": "function"
    },
    {
      "constant": false,
      "inputs": [
        {
          "name": "y",
          "type": "uint256"
        }
      ],
      "name": "setGridSizeY",
      "outputs": [],
      "payable": false,
      "stateMutability": "nonpayable",
      "type": "function"
    },
    {
      "constant": false,
      "inputs": [
        {
          "name": "x",
          "type": "uint256"
        },
        {
          "name": "y",
          "type": "uint256"
        },
        {
          "name": "emoji",
          "type": "uint32[8]"
        },
        {
          "name": "r",
          "type": "uint8"
        },
        {
          "name": "g",
          "type": "uint8"
        },
        {
          "name": "b",
          "type": "uint8"
        }
      ],
      "name": "rentSquare",
      "outputs": [],
      "payable": true,
      "stateMutability": "payable",
      "type": "function"
    },
    {
      "constant": false,
      "inputs": [
        {
          "name": "newTimeLimit",
          "type": "uint256"
        }
      ],
      "name": "setTimeLimit",
      "outputs": [],
      "payable": false,
      "stateMutability": "nonpayable",
      "type": "function"
    },
    {
      "constant": false,
      "inputs": [
        {
          "name": "newOwner",
          "type": "address"
        }
      ],
      "name": "transferOwner",
      "outputs": [],
      "payable": false,
      "stateMutability": "nonpayable",
      "type": "function"
    },
    {
      "constant": false,
      "inputs": [],
      "name": "withdraw",
      "outputs": [],
      "payable": false,
      "stateMutability": "nonpayable",
      "type": "function"
    }
  ],
  "bytecode": "0x60606040526002600155600a600255600a60035560ff600460006101000a81548160ff021916908360ff160217905550341561003a57600080fd5b336000806101000a81548173ffffffffffffffffffffffffffffffffffffffff021916908373ffffffffffffffffffffffffffffffffffffffff160217905550610e19806100896000396000f3006060604052600436106100c5576000357c0100000000000000000000000000000000000000000000000000000000900463ffffffff16806312065fe0146100ca5780633ccfd60b146100f35780634fb2e45d14610108578063655ed855146101415780636aba3e031461016a5780637dbf5f4d1461018d57806387c25ad4146101ff5780638da5cb5b146102d6578063983a91861461032b5780639e2b233a1461034e578063c08d1fe51461037d578063def97023146103a6578063e2889c82146103cf575b600080fd5b34156100d557600080fd5b6100dd6103f2565b6040518082815260200191505060405180910390f35b34156100fe57600080fd5b610106610411565b005b341561011357600080fd5b61013f600480803573ffffffffffffffffffffffffffffffffffffffff169060200190919050506104e6565b005b341561014c57600080fd5b610154610584565b6040518082815260200191505060405180910390f35b341561017557600080fd5b61018b600480803590602001909190505061058a565b005b6101fd600480803590602001909190803590602001909190806101000190600880602002604051908101604052809291908260086020028082843782019150505050509190803560ff1690602001909190803560ff1690602001909190803560ff169060200190919050506105ef565b005b341561020a57600080fd5b61022960048080359060200190919080359060200190919050506108f8565b6040518089600860200280838360005b83811015610254578082015181840152602081019050610239565b505050509050018860ff1660ff1681526020018760ff1660ff1681526020018660ff1660ff1681526020018573ffffffffffffffffffffffffffffffffffffffff1673ffffffffffffffffffffffffffffffffffffffff1681526020018481526020018381526020018281526020019850505050505050505060405180910390f35b34156102e157600080fd5b6102e9610b40565b604051808273ffffffffffffffffffffffffffffffffffffffff1673ffffffffffffffffffffffffffffffffffffffff16815260200191505060405180910390f35b341561033657600080fd5b61034c6004808035906020019091905050610b65565b005b341561035957600080fd5b610361610bca565b604051808260ff1660ff16815260200191505060405180910390f35b341561038857600080fd5b610390610bdd565b6040518082815260200191505060405180910390f35b34156103b157600080fd5b6103b9610be3565b6040518082815260200191505060405180910390f35b34156103da57600080fd5b6103f06004808035906020019091905050610be9565b005b60003073ffffffffffffffffffffffffffffffffffffffff1631905090565b6000809054906101000a900473ffffffffffffffffffffffffffffffffffffffff1673ffffffffffffffffffffffffffffffffffffffff163373ffffffffffffffffffffffffffffffffffffffff1614151561046c57600080fd5b6000809054906101000a900473ffffffffffffffffffffffffffffffffffffffff1673ffffffffffffffffffffffffffffffffffffffff166108fc3073ffffffffffffffffffffffffffffffffffffffff16319081150290604051600060405180830381858888f1935050505015156104e457600080fd5b565b6000809054906101000a900473ffffffffffffffffffffffffffffffffffffffff1673ffffffffffffffffffffffffffffffffffffffff163373ffffffffffffffffffffffffffffffffffffffff1614151561054157600080fd5b806000806101000a81548173ffffffffffffffffffffffffffffffffffffffff021916908373ffffffffffffffffffffffffffffffffffffffff16021790555050565b60035481565b6000809054906101000a900473ffffffffffffffffffffffffffffffffffffffff1673ffffffffffffffffffffffffffffffffffffffff163373ffffffffffffffffffffffffffffffffffffffff161415156105e557600080fd5b8060028190555050565b600060025487108015610603575060035486105b151561060e57600080fd5b600560008881526020019081526020016000206000878152602001908152602001600020600301543411151561064357600080fd5b60015460056000898152602001908152602001600020600088815260200190815260200160002060020154430311151561067c57600080fd5b600160056000898152602001908152602001600020600088815260200190815260200160002060040154019050610100604051908101604052808681526020018560ff1681526020018460ff1681526020018360ff1681526020013373ffffffffffffffffffffffffffffffffffffffff1681526020014381526020013481526020018281525060056000898152602001908152602001600020600088815260200190815260200160002060008201518160000190600861073e929190610c4e565b5060208201518160010160006101000a81548160ff021916908360ff16021790555060408201518160010160016101000a81548160ff021916908360ff16021790555060608201518160010160026101000a81548160ff021916908360ff16021790555060808201518160010160036101000a81548173ffffffffffffffffffffffffffffffffffffffff021916908373ffffffffffffffffffffffffffffffffffffffff16021790555060a0820151816002015560c0820151816003015560e082015181600401559050507f108e426e39f4fd2625f7c261e04bebb1ca20554d32ff24b8124e71684aea6dbd8787878787873343348a604051808b81526020018a815260200189600860200280838360005b8381101561086c578082015181840152602081019050610851565b505050509050018860ff1660ff1681526020018760ff1660ff1681526020018660ff1660ff1681526020018573ffffffffffffffffffffffffffffffffffffffff1673ffffffffffffffffffffffffffffffffffffffff1681526020018481526020018381526020018281526020019a505050505050505050505060405180910390a150505050505050565b610900610cf1565b6000806000806000806000610913610d20565b6000600560008d815260200190815260200160002060008c81526020019081526020016000206101006040519081016040529081600082016008806020026040519081016040528092919082600880156109ae576020028201916000905b82829054906101000a900463ffffffff1663ffffffff16815260200190600401906020826003010492830192600103820291508084116109715790505b505050505081526020016001820160009054906101000a900460ff1660ff1660ff1681526020016001820160019054906101000a900460ff1660ff1660ff1681526020016001820160029054906101000a900460ff1660ff1660ff1681526020016001820160039054906101000a900473ffffffffffffffffffffffffffffffffffffffff1673ffffffffffffffffffffffffffffffffffffffff1673ffffffffffffffffffffffffffffffffffffffff168152602001600282015481526020016003820154815260200160048201548152505091506000826080015173ffffffffffffffffffffffffffffffffffffffff1614159050816000015181610ac457600460009054906101000a900460ff16610aca565b82602001515b82610ae457600460009054906101000a900460ff16610aea565b83604001515b83610b0457600460009054906101000a900460ff16610b0a565b84606001515b85608001518660a001518760c001518860e001518797509950995099509950995099509950995050509295985092959890939650565b6000809054906101000a900473ffffffffffffffffffffffffffffffffffffffff1681565b6000809054906101000a900473ffffffffffffffffffffffffffffffffffffffff1673ffffffffffffffffffffffffffffffffffffffff163373ffffffffffffffffffffffffffffffffffffffff16141515610bc057600080fd5b8060038190555050565b600460009054906101000a900460ff1681565b60015481565b60025481565b6000809054906101000a900473ffffffffffffffffffffffffffffffffffffffff1673ffffffffffffffffffffffffffffffffffffffff163373ffffffffffffffffffffffffffffffffffffffff16141515610c4457600080fd5b8060018190555050565b826008600701600890048101928215610ce05791602002820160005b83821115610cae57835183826101000a81548163ffffffff021916908363ffffffff1602179055509260200192600401602081600301049283019260010302610c6a565b8015610cde5782816101000a81549063ffffffff0219169055600401602081600301049283019260010302610cae565b505b509050610ced9190610d8b565b5090565b610100604051908101604052806008905b600063ffffffff16815260200190600190039081610d025790505090565b6101e060405190810160405280610d35610dbe565b8152602001600060ff168152602001600060ff168152602001600060ff168152602001600073ffffffffffffffffffffffffffffffffffffffff1681526020016000815260200160008152602001600081525090565b610dbb91905b80821115610db757600081816101000a81549063ffffffff021916905550600101610d91565b5090565b90565b610100604051908101604052806008905b600063ffffffff16815260200190600190039081610dcf57905050905600a165627a7a723058204a5c84c3438e97f3513b33f6f25ccb5973195f499ea9bc17210c6987c0016c5c0029",
  "source": "pragma solidity ^0.4.19;\n\ncontract Squares {\n  address public owner;\n  uint256 public timeLimit = 2;\n\n  uint256 public GRID_SIZE_X = 10;\n  uint256 public GRID_SIZE_Y = 10;\n  uint8 public DEFAULT_COLOR = 255;\n\n  modifier ownerOnly() {\n    require(msg.sender == owner);\n    _;\n  }\n\n  function Squares() public {\n    owner = msg.sender;\n  }\n\n  event NewSquareRental(\n    uint256 x,\n    uint256 y,\n    uint32[8] emoji,\n    uint8 r,\n    uint8 g,\n    uint8 b,\n    address newOwner,\n    uint256 blockNumber,\n    uint256 pricePaid,\n    uint256 rentalNumber\n  );\n\n  struct Square {\n    uint32[8] emoji;\n    uint8 r;\n    uint8 g;\n    uint8 b;\n    address currentOwner;\n    uint256 placedAtBlock;\n    uint256 lastPricePaid;\n    uint256 timesRented;\n  }\n\n  mapping (uint256 => mapping (uint256 => Square)) private grid;\n\n  function getBalance() public constant returns(uint256 balance) {\n    return this.balance;\n  }\n\n  function getSquareInfo(uint256 x, uint256 y)\n    constant\n    public\n    returns (\n      uint32[8] emoji,\n      uint8 r,\n      uint8 g,\n      uint8 b,\n      address currentOwner,\n      uint256 placedAtBlock,\n      uint256 lastPricePaid,\n      uint256 timesRented\n  ) {\n    Square memory square = grid[x][y];\n    bool isOwned = square.currentOwner != 0x0;\n    return (\n      square.emoji,\n      isOwned ? square.r : DEFAULT_COLOR,\n      isOwned ? square.g : DEFAULT_COLOR,\n      isOwned ? square.b : DEFAULT_COLOR,\n      square.currentOwner,\n      square.placedAtBlock,\n      square.lastPricePaid,\n      square.timesRented\n    );\n  }\n\n  function setGridSizeX(uint256 x) public ownerOnly {\n    GRID_SIZE_X = x;\n  }\n\n  function setGridSizeY(uint256 y) public ownerOnly {\n    GRID_SIZE_Y = y;\n  }\n\n  function rentSquare(\n    uint256 x,\n    uint256 y,\n    uint32[8] emoji,\n    uint8 r,\n    uint8 g,\n    uint8 b\n  ) public payable {\n    require(x < GRID_SIZE_X && y < GRID_SIZE_Y);\n    require(msg.value > grid[x][y].lastPricePaid);\n    require(block.number - grid[x][y].placedAtBlock > timeLimit);\n\n    uint256 timesRented = grid[x][y].timesRented + 1;\n\n    grid[x][y] = Square(\n      emoji,\n      r,\n      g,\n      b,\n      msg.sender,\n      block.number,\n      msg.value,\n      timesRented\n    );\n\n    NewSquareRental(\n      x,\n      y,\n      emoji,\n      r,\n      g,\n      b,\n      msg.sender,\n      block.number,\n      msg.value,\n      timesRented\n    );\n  }\n\n  function setTimeLimit(uint256 newTimeLimit) public ownerOnly {\n    timeLimit = newTimeLimit;\n  }\n\n  function transferOwner(address newOwner) public ownerOnly {\n    owner = newOwner;\n  }\n\n  function withdraw() public ownerOnly {\n    owner.transfer(this.balance);\n  }\n}\n",
  "sourcePath": "/Users/Danny/Documents/github/ethereum/decentralized-resume/contracts/Squares.sol",
  "compiler": {
    "name": "solc",
    "version": "0.4.19+commit.c4cbbb05.Emscripten.clang"
  },
  "schemaVersion": "1.0.1",
  "updatedAt": "2018-02-13T02:12:48.317Z"
}