{
  "contractName": "Squares",
  "abi": [
    {
      "constant": true,
      "inputs": [
        {
          "name": "",
          "type": "uint256"
        },
        {
          "name": "",
          "type": "uint256"
        }
      ],
      "name": "grid",
      "outputs": [
        {
          "name": "r",
          "type": "uint8"
        },
        {
          "name": "g",
          "type": "uint8"
        },
        {
          "name": "b",
          "type": "uint8"
        },
        {
          "name": "currentOwner",
          "type": "address"
        },
        {
          "name": "placedAtBlock",
          "type": "uint256"
        },
        {
          "name": "pricePaid",
          "type": "uint256"
        },
        {
          "name": "timesRented",
          "type": "uint256"
        }
      ],
      "payable": false,
      "stateMutability": "view",
      "type": "function"
    },
    {
      "constant": true,
      "inputs": [],
      "name": "GRID_SIZE_Y",
      "outputs": [
        {
          "name": "",
          "type": "uint256"
        }
      ],
      "payable": false,
      "stateMutability": "view",
      "type": "function"
    },
    {
      "constant": true,
      "inputs": [],
      "name": "owner",
      "outputs": [
        {
          "name": "",
          "type": "address"
        }
      ],
      "payable": false,
      "stateMutability": "view",
      "type": "function"
    },
    {
      "constant": true,
      "inputs": [],
      "name": "timeLimit",
      "outputs": [
        {
          "name": "",
          "type": "uint256"
        }
      ],
      "payable": false,
      "stateMutability": "view",
      "type": "function"
    },
    {
      "constant": true,
      "inputs": [],
      "name": "GRID_SIZE_X",
      "outputs": [
        {
          "name": "",
          "type": "uint256"
        }
      ],
      "payable": false,
      "stateMutability": "view",
      "type": "function"
    },
    {
      "inputs": [],
      "payable": false,
      "stateMutability": "nonpayable",
      "type": "constructor"
    },
    {
      "constant": true,
      "inputs": [],
      "name": "getBalance",
      "outputs": [
        {
          "name": "balance",
          "type": "uint256"
        }
      ],
      "payable": false,
      "stateMutability": "view",
      "type": "function"
    },
    {
      "constant": false,
      "inputs": [
        {
          "name": "x",
          "type": "uint256"
        }
      ],
      "name": "setGridSizeX",
      "outputs": [],
      "payable": false,
      "stateMutability": "nonpayable",
      "type": "function"
    },
    {
      "constant": false,
      "inputs": [
        {
          "name": "y",
          "type": "uint256"
        }
      ],
      "name": "setGridSizeY",
      "outputs": [],
      "payable": false,
      "stateMutability": "nonpayable",
      "type": "function"
    },
    {
      "constant": false,
      "inputs": [
        {
          "name": "x",
          "type": "uint256"
        },
        {
          "name": "y",
          "type": "uint256"
        },
        {
          "name": "r",
          "type": "uint8"
        },
        {
          "name": "g",
          "type": "uint8"
        },
        {
          "name": "b",
          "type": "uint8"
        }
      ],
      "name": "rentSquare",
      "outputs": [],
      "payable": true,
      "stateMutability": "payable",
      "type": "function"
    },
    {
      "constant": false,
      "inputs": [
        {
          "name": "newTimeLimit",
          "type": "uint256"
        }
      ],
      "name": "setTimeLimit",
      "outputs": [],
      "payable": false,
      "stateMutability": "nonpayable",
      "type": "function"
    },
    {
      "constant": false,
      "inputs": [
        {
          "name": "newOwner",
          "type": "address"
        }
      ],
      "name": "transferOwner",
      "outputs": [],
      "payable": false,
      "stateMutability": "nonpayable",
      "type": "function"
    },
    {
      "constant": false,
      "inputs": [],
      "name": "withdraw",
      "outputs": [],
      "payable": false,
      "stateMutability": "nonpayable",
      "type": "function"
    }
  ],
  "bytecode": "0x6060604052601960015560646002556064600355341561001e57600080fd5b336000806101000a81548173ffffffffffffffffffffffffffffffffffffffff021916908373ffffffffffffffffffffffffffffffffffffffff1602179055506109148061006d6000396000f3006060604052600436106100ba576000357c0100000000000000000000000000000000000000000000000000000000900463ffffffff16806312065fe0146100bf578063146008e3146100e85780631f8ff401146101905780633ccfd60b146101d55780634fb2e45d146101ea578063655ed855146102235780636aba3e031461024c5780638da5cb5b1461026f578063983a9186146102c4578063c08d1fe5146102e7578063def9702314610310578063e2889c8214610339575b600080fd5b34156100ca57600080fd5b6100d261035c565b6040518082815260200191505060405180910390f35b34156100f357600080fd5b610112600480803590602001909190803590602001909190505061037b565b604051808860ff1660ff1681526020018760ff1660ff1681526020018660ff1660ff1681526020018573ffffffffffffffffffffffffffffffffffffffff1673ffffffffffffffffffffffffffffffffffffffff16815260200184815260200183815260200182815260200197505050505050505060405180910390f35b6101d3600480803590602001909190803590602001909190803560ff1690602001909190803560ff1690602001909190803560ff16906020019091905050610411565b005b34156101e057600080fd5b6101e861060f565b005b34156101f557600080fd5b610221600480803573ffffffffffffffffffffffffffffffffffffffff169060200190919050506106e4565b005b341561022e57600080fd5b610236610782565b6040518082815260200191505060405180910390f35b341561025757600080fd5b61026d6004808035906020019091905050610788565b005b341561027a57600080fd5b6102826107ed565b604051808273ffffffffffffffffffffffffffffffffffffffff1673ffffffffffffffffffffffffffffffffffffffff16815260200191505060405180910390f35b34156102cf57600080fd5b6102e56004808035906020019091905050610812565b005b34156102f257600080fd5b6102fa610877565b6040518082815260200191505060405180910390f35b341561031b57600080fd5b61032361087d565b6040518082815260200191505060405180910390f35b341561034457600080fd5b61035a6004808035906020019091905050610883565b005b60003073ffffffffffffffffffffffffffffffffffffffff1631905090565b6004602052816000526040600020602052806000526040600020600091509150508060000160009054906101000a900460ff16908060000160019054906101000a900460ff16908060000160029054906101000a900460ff16908060000160039054906101000a900473ffffffffffffffffffffffffffffffffffffffff16908060010154908060020154908060030154905087565b60025485108015610423575060035484105b151561042e57600080fd5b600460008681526020019081526020016000206000858152602001908152602001600020600201543411151561046357600080fd5b60015460046000878152602001908152602001600020600086815260200190815260200160002060010154430311151561049c57600080fd5b60e0604051908101604052808460ff1681526020018360ff1681526020018260ff1681526020013373ffffffffffffffffffffffffffffffffffffffff1681526020014381526020013481526020016001600460008981526020019081526020016000206000888152602001908152602001600020600301540181525060046000878152602001908152602001600020600086815260200190815260200160002060008201518160000160006101000a81548160ff021916908360ff16021790555060208201518160000160016101000a81548160ff021916908360ff16021790555060408201518160000160026101000a81548160ff021916908360ff16021790555060608201518160000160036101000a81548173ffffffffffffffffffffffffffffffffffffffff021916908373ffffffffffffffffffffffffffffffffffffffff1602179055506080820151816001015560a0820151816002015560c082015181600301559050505050505050565b6000809054906101000a900473ffffffffffffffffffffffffffffffffffffffff1673ffffffffffffffffffffffffffffffffffffffff163373ffffffffffffffffffffffffffffffffffffffff1614151561066a57600080fd5b6000809054906101000a900473ffffffffffffffffffffffffffffffffffffffff1673ffffffffffffffffffffffffffffffffffffffff166108fc3073ffffffffffffffffffffffffffffffffffffffff16319081150290604051600060405180830381858888f1935050505015156106e257600080fd5b565b6000809054906101000a900473ffffffffffffffffffffffffffffffffffffffff1673ffffffffffffffffffffffffffffffffffffffff163373ffffffffffffffffffffffffffffffffffffffff1614151561073f57600080fd5b806000806101000a81548173ffffffffffffffffffffffffffffffffffffffff021916908373ffffffffffffffffffffffffffffffffffffffff16021790555050565b60035481565b6000809054906101000a900473ffffffffffffffffffffffffffffffffffffffff1673ffffffffffffffffffffffffffffffffffffffff163373ffffffffffffffffffffffffffffffffffffffff161415156107e357600080fd5b8060028190555050565b6000809054906101000a900473ffffffffffffffffffffffffffffffffffffffff1681565b6000809054906101000a900473ffffffffffffffffffffffffffffffffffffffff1673ffffffffffffffffffffffffffffffffffffffff163373ffffffffffffffffffffffffffffffffffffffff1614151561086d57600080fd5b8060038190555050565b60015481565b60025481565b6000809054906101000a900473ffffffffffffffffffffffffffffffffffffffff1673ffffffffffffffffffffffffffffffffffffffff163373ffffffffffffffffffffffffffffffffffffffff161415156108de57600080fd5b80600181905550505600a165627a7a72305820e371563533670e24e557f541ed28516ebdfcc13dcd6cc6d6db092a261effde960029",
  "source": "pragma solidity ^0.4.19;\n\ncontract Squares {\n    address public owner;\n    uint256 public timeLimit = 25;\n\n    uint256 public GRID_SIZE_X = 100;\n    uint256 public GRID_SIZE_Y = 100;\n\n    modifier ownerOnly() {\n        require(msg.sender == owner);\n        _;\n    }\n\n    function Squares() public {\n        owner = msg.sender;\n    }\n\n    struct Square {\n        uint8 r;\n        uint8 g;\n        uint8 b;\n        address currentOwner;\n        uint256 placedAtBlock;\n        uint256 pricePaid;\n        uint256 timesRented;\n    }\n\n    mapping (uint256 => mapping (uint256 => Square)) public grid;\n\n    function getBalance() public constant returns(uint256 balance) {\n        return this.balance;\n    }\n\n    function setGridSizeX(uint256 x) public ownerOnly {\n        GRID_SIZE_X = x;\n    }\n\n    function setGridSizeY(uint256 y) public ownerOnly {\n        GRID_SIZE_Y = y;\n    }\n\n    function rentSquare(\n        uint256 x,\n        uint256 y,\n        uint8 r,\n        uint8 g,\n        uint8 b\n    ) public payable {\n        require(x < GRID_SIZE_X && y < GRID_SIZE_Y);\n        require(msg.value > grid[x][y].pricePaid);\n        require(block.number - grid[x][y].placedAtBlock > timeLimit);\n        grid[x][y] = Square(\n            r,\n            g,\n            b,\n            msg.sender,\n            block.number,\n            msg.value,\n            grid[x][y].timesRented + 1\n        );\n    }\n\n    function setTimeLimit(uint256 newTimeLimit) public ownerOnly {\n        timeLimit = newTimeLimit;\n    }\n\n    function transferOwner(address newOwner) public ownerOnly {\n        owner = newOwner;\n    }\n\n    function withdraw() public ownerOnly {\n        owner.transfer(this.balance);\n    }\n}\n",
  "sourcePath": "/Users/Danny/Documents/github/ethereum/decentralized-resume/contracts/Squares.sol",
  "compiler": {
    "name": "solc",
    "version": "0.4.19+commit.c4cbbb05.Emscripten.clang"
  },
  "schemaVersion": "1.0.1",
  "updatedAt": "2018-02-02T04:31:37.241Z"
}