{
  "contractName": "Squares",
  "abi": [
    {
      "constant": true,
      "inputs": [],
      "name": "GRID_SIZE_Y",
      "outputs": [
        {
          "name": "",
          "type": "uint256"
        }
      ],
      "payable": false,
      "stateMutability": "view",
      "type": "function"
    },
    {
      "constant": true,
      "inputs": [],
      "name": "owner",
      "outputs": [
        {
          "name": "",
          "type": "address"
        }
      ],
      "payable": false,
      "stateMutability": "view",
      "type": "function"
    },
    {
      "constant": true,
      "inputs": [],
      "name": "DEFAULT_COLOR",
      "outputs": [
        {
          "name": "",
          "type": "uint8"
        }
      ],
      "payable": false,
      "stateMutability": "view",
      "type": "function"
    },
    {
      "constant": true,
      "inputs": [],
      "name": "timeLimit",
      "outputs": [
        {
          "name": "",
          "type": "uint256"
        }
      ],
      "payable": false,
      "stateMutability": "view",
      "type": "function"
    },
    {
      "constant": true,
      "inputs": [],
      "name": "GRID_SIZE_X",
      "outputs": [
        {
          "name": "",
          "type": "uint256"
        }
      ],
      "payable": false,
      "stateMutability": "view",
      "type": "function"
    },
    {
      "inputs": [],
      "payable": false,
      "stateMutability": "nonpayable",
      "type": "constructor"
    },
    {
      "constant": true,
      "inputs": [],
      "name": "getBalance",
      "outputs": [
        {
          "name": "balance",
          "type": "uint256"
        }
      ],
      "payable": false,
      "stateMutability": "view",
      "type": "function"
    },
    {
      "constant": true,
      "inputs": [
        {
          "name": "x",
          "type": "uint256"
        },
        {
          "name": "y",
          "type": "uint256"
        }
      ],
      "name": "getSquareInfo",
      "outputs": [
        {
          "name": "r",
          "type": "uint8"
        },
        {
          "name": "g",
          "type": "uint8"
        },
        {
          "name": "b",
          "type": "uint8"
        },
        {
          "name": "currentOwner",
          "type": "address"
        },
        {
          "name": "placedAtBlock",
          "type": "uint256"
        },
        {
          "name": "pricePaid",
          "type": "uint256"
        },
        {
          "name": "timesRented",
          "type": "uint256"
        }
      ],
      "payable": false,
      "stateMutability": "view",
      "type": "function"
    },
    {
      "constant": false,
      "inputs": [
        {
          "name": "x",
          "type": "uint256"
        }
      ],
      "name": "setGridSizeX",
      "outputs": [],
      "payable": false,
      "stateMutability": "nonpayable",
      "type": "function"
    },
    {
      "constant": false,
      "inputs": [
        {
          "name": "y",
          "type": "uint256"
        }
      ],
      "name": "setGridSizeY",
      "outputs": [],
      "payable": false,
      "stateMutability": "nonpayable",
      "type": "function"
    },
    {
      "constant": false,
      "inputs": [
        {
          "name": "x",
          "type": "uint256"
        },
        {
          "name": "y",
          "type": "uint256"
        },
        {
          "name": "r",
          "type": "uint8"
        },
        {
          "name": "g",
          "type": "uint8"
        },
        {
          "name": "b",
          "type": "uint8"
        }
      ],
      "name": "rentSquare",
      "outputs": [],
      "payable": true,
      "stateMutability": "payable",
      "type": "function"
    },
    {
      "constant": false,
      "inputs": [
        {
          "name": "newTimeLimit",
          "type": "uint256"
        }
      ],
      "name": "setTimeLimit",
      "outputs": [],
      "payable": false,
      "stateMutability": "nonpayable",
      "type": "function"
    },
    {
      "constant": false,
      "inputs": [
        {
          "name": "newOwner",
          "type": "address"
        }
      ],
      "name": "transferOwner",
      "outputs": [],
      "payable": false,
      "stateMutability": "nonpayable",
      "type": "function"
    },
    {
      "constant": false,
      "inputs": [],
      "name": "withdraw",
      "outputs": [],
      "payable": false,
      "stateMutability": "nonpayable",
      "type": "function"
    }
  ],
  "bytecode": "0x606060405260196001556064600255603260035560ff600460006101000a81548160ff021916908360ff160217905550341561003a57600080fd5b336000806101000a81548173ffffffffffffffffffffffffffffffffffffffff021916908373ffffffffffffffffffffffffffffffffffffffff160217905550610aeb806100896000396000f3006060604052600436106100c5576000357c0100000000000000000000000000000000000000000000000000000000900463ffffffff16806312065fe0146100ca5780631f8ff401146100f35780633ccfd60b146101385780634fb2e45d1461014d578063655ed855146101865780636aba3e03146101af57806387c25ad4146101d25780638da5cb5b1461027a578063983a9186146102cf5780639e2b233a146102f2578063c08d1fe514610321578063def970231461034a578063e2889c8214610373575b600080fd5b34156100d557600080fd5b6100dd610396565b6040518082815260200191505060405180910390f35b610136600480803590602001909190803590602001909190803560ff1690602001909190803560ff1690602001909190803560ff169060200190919050506103b5565b005b341561014357600080fd5b61014b6105b3565b005b341561015857600080fd5b610184600480803573ffffffffffffffffffffffffffffffffffffffff16906020019091905050610688565b005b341561019157600080fd5b610199610726565b6040518082815260200191505060405180910390f35b34156101ba57600080fd5b6101d0600480803590602001909190505061072c565b005b34156101dd57600080fd5b6101fc6004808035906020019091908035906020019091905050610791565b604051808860ff1660ff1681526020018760ff1660ff1681526020018660ff1660ff1681526020018573ffffffffffffffffffffffffffffffffffffffff1673ffffffffffffffffffffffffffffffffffffffff16815260200184815260200183815260200182815260200197505050505050505060405180910390f35b341561028557600080fd5b61028d610954565b604051808273ffffffffffffffffffffffffffffffffffffffff1673ffffffffffffffffffffffffffffffffffffffff16815260200191505060405180910390f35b34156102da57600080fd5b6102f06004808035906020019091905050610979565b005b34156102fd57600080fd5b6103056109de565b604051808260ff1660ff16815260200191505060405180910390f35b341561032c57600080fd5b6103346109f1565b6040518082815260200191505060405180910390f35b341561035557600080fd5b61035d6109f7565b6040518082815260200191505060405180910390f35b341561037e57600080fd5b61039460048080359060200190919050506109fd565b005b60003073ffffffffffffffffffffffffffffffffffffffff1631905090565b600254851080156103c7575060035484105b15156103d257600080fd5b600560008681526020019081526020016000206000858152602001908152602001600020600201543411151561040757600080fd5b60015460056000878152602001908152602001600020600086815260200190815260200160002060010154430311151561044057600080fd5b60e0604051908101604052808460ff1681526020018360ff1681526020018260ff1681526020013373ffffffffffffffffffffffffffffffffffffffff1681526020014381526020013481526020016001600560008981526020019081526020016000206000888152602001908152602001600020600301540181525060056000878152602001908152602001600020600086815260200190815260200160002060008201518160000160006101000a81548160ff021916908360ff16021790555060208201518160000160016101000a81548160ff021916908360ff16021790555060408201518160000160026101000a81548160ff021916908360ff16021790555060608201518160000160036101000a81548173ffffffffffffffffffffffffffffffffffffffff021916908373ffffffffffffffffffffffffffffffffffffffff1602179055506080820151816001015560a0820151816002015560c082015181600301559050505050505050565b6000809054906101000a900473ffffffffffffffffffffffffffffffffffffffff1673ffffffffffffffffffffffffffffffffffffffff163373ffffffffffffffffffffffffffffffffffffffff1614151561060e57600080fd5b6000809054906101000a900473ffffffffffffffffffffffffffffffffffffffff1673ffffffffffffffffffffffffffffffffffffffff166108fc3073ffffffffffffffffffffffffffffffffffffffff16319081150290604051600060405180830381858888f19350505050151561068657600080fd5b565b6000809054906101000a900473ffffffffffffffffffffffffffffffffffffffff1673ffffffffffffffffffffffffffffffffffffffff163373ffffffffffffffffffffffffffffffffffffffff161415156106e357600080fd5b806000806101000a81548173ffffffffffffffffffffffffffffffffffffffff021916908373ffffffffffffffffffffffffffffffffffffffff16021790555050565b60035481565b6000809054906101000a900473ffffffffffffffffffffffffffffffffffffffff1673ffffffffffffffffffffffffffffffffffffffff163373ffffffffffffffffffffffffffffffffffffffff1614151561078757600080fd5b8060028190555050565b60008060008060008060006107a4610a62565b6000600560008c815260200190815260200160002060008b815260200190815260200160002060e060405190810160405290816000820160009054906101000a900460ff1660ff1660ff1681526020016000820160019054906101000a900460ff1660ff1660ff1681526020016000820160029054906101000a900460ff1660ff1660ff1681526020016000820160039054906101000a900473ffffffffffffffffffffffffffffffffffffffff1673ffffffffffffffffffffffffffffffffffffffff1673ffffffffffffffffffffffffffffffffffffffff168152602001600182015481526020016002820154815260200160038201548152505091506000826060015173ffffffffffffffffffffffffffffffffffffffff1614159050806108de57600460009054906101000a900460ff166108e4565b81600001515b816108fe57600460009054906101000a900460ff16610904565b82602001515b8261091e57600460009054906101000a900460ff16610924565b83604001515b846060015185608001518660a001518760c001519850985098509850985098509850505092959891949750929550565b6000809054906101000a900473ffffffffffffffffffffffffffffffffffffffff1681565b6000809054906101000a900473ffffffffffffffffffffffffffffffffffffffff1673ffffffffffffffffffffffffffffffffffffffff163373ffffffffffffffffffffffffffffffffffffffff161415156109d457600080fd5b8060038190555050565b600460009054906101000a900460ff1681565b60015481565b60025481565b6000809054906101000a900473ffffffffffffffffffffffffffffffffffffffff1673ffffffffffffffffffffffffffffffffffffffff163373ffffffffffffffffffffffffffffffffffffffff16141515610a5857600080fd5b8060018190555050565b60e060405190810160405280600060ff168152602001600060ff168152602001600060ff168152602001600073ffffffffffffffffffffffffffffffffffffffff16815260200160008152602001600081526020016000815250905600a165627a7a7230582026361ce56edc3bacf3d1e1f27c85f3dc430790ba8c63e2fecc4aa7bb4d736c9f0029",
  "source": "pragma solidity ^0.4.19;\n\ncontract Squares {\n  address public owner;\n  uint256 public timeLimit = 25;\n\n  uint256 public GRID_SIZE_X = 100;\n  uint256 public GRID_SIZE_Y = 50;\n  uint8 public DEFAULT_COLOR = 255;\n\n  modifier ownerOnly() {\n    require(msg.sender == owner);\n    _;\n  }\n\n  function Squares() public {\n    owner = msg.sender;\n  }\n\n  struct Square {\n    uint8 r;\n    uint8 g;\n    uint8 b;\n    address currentOwner;\n    uint256 placedAtBlock;\n    uint256 pricePaid;\n    uint256 timesRented;\n  }\n\n  mapping (uint256 => mapping (uint256 => Square)) private grid;\n\n  function getBalance() public constant returns(uint256 balance) {\n    return this.balance;\n  }\n\n  function getSquareInfo(uint256 x, uint256 y)\n    constant\n    public\n    returns (\n      uint8 r,\n      uint8 g,\n      uint8 b,\n      address currentOwner,\n      uint256 placedAtBlock,\n      uint256 pricePaid,\n      uint256 timesRented\n  ) {\n    Square memory square = grid[x][y];\n    bool isOwned = square.currentOwner != 0x0;\n    return (\n      isOwned ? square.r : DEFAULT_COLOR,\n      isOwned ? square.g : DEFAULT_COLOR,\n      isOwned ? square.b : DEFAULT_COLOR,\n      square.currentOwner,\n      square.placedAtBlock,\n      square.pricePaid,\n      square.timesRented\n    );\n  }\n\n  function setGridSizeX(uint256 x) public ownerOnly {\n    GRID_SIZE_X = x;\n  }\n\n  function setGridSizeY(uint256 y) public ownerOnly {\n    GRID_SIZE_Y = y;\n  }\n\n  function rentSquare(\n    uint256 x,\n    uint256 y,\n    uint8 r,\n    uint8 g,\n    uint8 b\n  ) public payable {\n    require(x < GRID_SIZE_X && y < GRID_SIZE_Y);\n    require(msg.value > grid[x][y].pricePaid);\n    require(block.number - grid[x][y].placedAtBlock > timeLimit);\n    grid[x][y] = Square(\n      r,\n      g,\n      b,\n      msg.sender,\n      block.number,\n      msg.value,\n      grid[x][y].timesRented + 1\n    );\n  }\n\n  function setTimeLimit(uint256 newTimeLimit) public ownerOnly {\n    timeLimit = newTimeLimit;\n  }\n\n  function transferOwner(address newOwner) public ownerOnly {\n    owner = newOwner;\n  }\n\n  function withdraw() public ownerOnly {\n    owner.transfer(this.balance);\n  }\n}\n",
  "sourcePath": "/Users/Danny/Documents/github/ethereum/decentralized-resume/contracts/Squares.sol",
  "compiler": {
    "name": "solc",
    "version": "0.4.19+commit.c4cbbb05.Emscripten.clang"
  },
  "schemaVersion": "1.0.1",
  "updatedAt": "2018-02-04T04:45:02.489Z"
}